:020000040044B6
:10000000A55AA55A0100000000000000002044008D
:100010000000000000204400000000000020440018
:1000200000000000000000000000000000000000D0
:1000300000000000000000000000000000000000C0
:1000400000000000000000000000000000000000B0
:1000500000000000000000000000000000000000A0
:102000000000012021244400DD3D4A00DF3D4A005C
:10201000E13D4A00E33D4A00E53D4A000000000082
:10202000000000000000000000000000E73D4A0042
:10203000E93D4A0000000000EB3D4A00ED3D4A004A
:10204000EF3D4A00EF3D4A00EF3D4A00EF3D4A00B8
:10205000EF3D4A00EF3D4A00EF3D4A00EF3D4A00A8
:10206000EF3D4A00EF3D4A00EF3D4A00EF3D4A0098
:10207000EF3D4A00EF3D4A00EF3D4A00EF3D4A0088
:10240000EF3D4A00EF3D4A0000BF00BF00BF00BFE4
:10241000FFF7FABF0000000000000000000000000D
:1024200072B64FF000004FF000014FF000024FF085
:1024300000034FF000044FF000054FF000064FF08E
:1024400000074FF0640001380028FCDC50480168A8
:102450004FF0807201EA0201002924D14D48016841
:102460004FF0807241EA020101604B4801684FF071
:10247000010241EA02010160484845F6F02101608D
:102480004AF20F510160444801684FF0010201EA2D
:1024900002010129F7D03E4801684FF0807201EA3D
:1024A00002010029F7D03E484CF2205101604DF660
:1024B000281101603B483C4901603C483C490160AF
:1024C0003C49086820F0040040F0010008603A49E7
:1024D000086820F0040040F0010008603748002838
:1024E00014D0374801684FF0010201EA02010029C7
:1024F00002D0344A344B01E0344A334B9A4205DA75
:1025000000200021E2E802019A42FBDB304800286B
:1025100009D0304A304B9A4205DA00200021E2E827
:1025200002019A42FBDB2D48002809D02C4A2D4B92
:102530009A4205DA00200021E2E802019A42FBDB20
:10254000294800684FF05A318842F9D0274880F373
:102550000888274801684FF00000814202D061F0EE
:1025600071FD01E061F0A2FC10482249016062F0B7
:1025700047F861F0F4FD62B661F0EEFD2AF010F864
:1025800000BFFEE7AFF30080AFF30080AFF3008041
:1025900010C32D4030C32D4004C32D4000C02D403A
:1025A0001000274000002740400000FF08ED00E039
:1025B0000020440094EF00E090EF00E001000000F4
:1025C00000C0284000004020008041200000402042
:1025D00001000000000000200000012001000000B8
:1025E0000000000000800000206340200000012067
:1025F000040026400000002000B583B00D230093A6
:10260000002301936B461946034857F0A8FF00BF0B
:1026100003B05DF804FB00BFE439402000B583B08F
:102620000D230093012301936B461946034857F08D
:1026300096FF00BF03B05DF804FB00BFE439402003
:1026400000B583B00F230093054B5B6901936B4684
:102650001946044857F083FF00BF03B05DF804FB40
:1026600000404020E439402008B5044B49221A704C
:102670000249034836F0DFF900BF08BD300A4020A8
:102680008C04402008B5044B4A221A7002490348C2
:1026900036F0D1F900BF08BD300A40208C0440203C
:1026A00008B5044B4B221A700249034836F0C3F9AF
:1026B00000BF08BD300A40208C04402008B5044B00
:1026C0004C221A700249034836F0B5F900BF08BD24
:1026D000300A40208C04402008B5044B4E221A706A
:1026E0000249034836F0A7F900BF08BD300A402070
:1026F0008C04402008B5044B4D221A70024903484F
:1027000036F099F900BF08BD300A40208C04402003
:1027100000B583B029F030FF02207DF015F901905B
:1027200002207CF045FC019029F026FF0B49022095
:102730007CF077FBFF220021094859F06BFF094B21
:10274000002283F8D824074B012283F8D92429F0EA
:1027500013FF00BF03B05DF804FB00BF90264E00DE
:10276000524A40207847402000B583B002207DF0D7
:10277000EBF8019002207CF01BFC01901049022034
:102780007CF04FFBFF2200210E4859F043FF0E481A
:102790002DF078FE0C4B002283F8D8240A4B01223E
:1027A00083F8D9240122074902207CF0EBFF0122A3
:1027B000044902207DF062FA00BF03B05DF804FB1B
:1027C00090264E00524A40207847402000B58DB0F8
:1027D000019000230B9302AB24220021184659F0EC
:1027E00019FF314B06225A832F4B00229A832E4B1E
:1027F00000229A772C4B5B8B04932B4B9B8B039380
:10280000294B9B7F0293012305930123069340F2FA
:10281000B27307934FF0FF330A9302AB184659F097
:10282000D9FF02460B4613460B93019B012283F806
:10283000F4200B9B1B0EDAB2019B83F8F5200B9B57
:102840001B0CDAB2019B83F8F6200B9B1B0ADAB251
:10285000019B83F8F7200B9BDAB2019B83F8F820E9
:10286000019B0122C3F8E820019B1622C3F8EC204B
:10287000019B052283F8F020019B03F1F401019BE9
:1028800093F8F0309BB21A46002056F0B3FC034692
:102890009AB2019BA3F8F220019B012283F8BC218C
:1028A00000BF0DB05DF804FB5031402000B583B08F
:1028B0000190019B002283F8F420214B1A78019BA0
:1028C00083F8F5201E4B5A78019B83F8F6201C4BA9
:1028D0009A78019B83F8F720194BDA78019B83F8EB
:1028E000F820174B1A79019B83F8F920144B5A7979
:1028F000019B83F8FA20019B0122C3F8E820019B89
:102900001422C3F8EC20019B072283F8F020019BDE
:1029100003F1F401019B93F8F0309BB21A460020BA
:1029200056F068FC03469AB2019BA3F8F220019B83
:10293000012283F8BC2100BF03B05DF804FB00BF97
:102940005031402000B58DB0019000230B9302ABB5
:1029500024220021184659F05DFE2F4BDB8804939A
:102960002D4B1B8903932C4B9B7A02932A4B9B88FC
:102970000593294B5B88013B0693274B1B88A3F2E9
:102980006C7307934FF0FF330A9302AB184659F06C
:1029900021FF02460B4613460B93019B002283F84E
:1029A000F4200B9B1B0EDAB2019B83F8F5200B9BE6
:1029B0001B0CDAB2019B83F8F6200B9B1B0ADAB2E0
:1029C000019B83F8F7200B9BDAB2019B83F8F82078
:1029D000019B0122C3F8E820019B1622C3F8EC20DA
:1029E000019B052283F8F020019B03F1F401019B78
:1029F00093F8F0309BB21A46002056F0FBFB0346DA
:102A00009AB2019BA3F8F220019B012283F8BC211A
:102A100000BF0DB05DF804FB8832402082B0019009
:102A2000019B1A780C4B1A70019B5A780A4B5A700A
:102A3000019B9A78084B9A70019BDA78064BDA7002
:102A4000019B1A79044B1A71019B5A79024B5A71F6
:102A500000BF02B0704700BF5031402082B00190EB
:102A6000019B1A780C4B5A73019B5A780A4B9A7344
:102A7000019B9A78084BDA73019BDA78064B1A743B
:102A8000019B1A79044B5A74019B5A79024B9A7430
:102A900000BF02B0704700BF5031402000B58BB07E
:102AA0000190019B1A78324B83F8D722019B5A7808
:102AB0002F4B83F8D822019B9A782D4B83F8D9228B
:102AC00015238DF80C3000238DF80D3000238DF880
:102AD0000E3000238DF80F3000238DF810300023C6
:102AE0008DF8113000238DF8123000238DF813304B
:102AF00000238DF8143000238DF8153000238DF855
:102B0000163000238DF8173000238DF8183000237D
:102B10008DF8193000238DF81A3000238DF81B3002
:102B200000238DF81C3000238DF81D30019B1B788D
:102B30008DF81E30019B5B788DF81F30019B9B78D0
:102B40008DF8203000238DF8213000238DF82230BD
:102B500000238DF8233000238DF8243003AB194671
:102B6000044835F068FF00BF0BB05DF804FB00BF00
:102B7000784740208C04402082B00190019B1B7854
:102B80001A46164B5A63019B5A78144B83F830202F
:102B9000019B02331B781A46104B5A64019BDA786A
:102BA0000E4B1A70019B1A790C4B5A70019B5A7983
:102BB0000A4B9A70019B9A79084BDA70019BDA797B
:102BC000064B1A71019B1A7A044B5A71019B5A7A6F
:102BD000024BDA7400BF02B0704700BF5031402092
:102BE00030B58FB00590059901310978080605992F
:102BF000023109780904084305990331097809026B
:102C00000143059804300078014308464B490862A7
:102C10004A49096A0D910D9900200A460346CDE9FB
:102C20000A230AAB184659F0C9FB0C900C9B5B6950
:102C30009BB203F26C739AB2404B9A840C9B1B6953
:102C40009BB201339AB23D4BDA840C9BDB689AB29B
:102C50003A4B1A850C9B9B689AB2384B5A850C9B51
:102C60005B689AB2354B9A850C9B1B68DAB2334B82
:102C700083F82E20324B1A88304B9B8C9A4257D2C5
:102C80002E4B1B8DADF820302C4BDB8CADF81E305D
:102C90002A4B9B8CADF81C30284B5B8DADF8223055
:102CA000264B9B8DADF82430244B93F82E308DF8B5
:102CB00026300C9B1B6A002B19D1059B06331B7811
:102CC000059A0732127807A98D1D07A90C1D07A9BF
:102CD000023107A80392029307AB0A33019307ABB3
:102CE000083300932B4622460FF0C4FE1CE0059BE0
:102CF00006331B785B42DBB2059A073212785242E8
:102D0000D2B207A98D1D07A90C1D07A9023107A87A
:102D10000392029307AB0A33019307AB0833009386
:102D20002B4622460FF0A6FE07AB184629F004FCFE
:102D30000EF074FF00BF0FB030BD00BF5031402017
:102D40008832402000B587B003468DF807301B4B12
:102D50001B68062B2DD0194B1B68002B04D10222B7
:102D6000012116484BF0B6F8154B2F221A70144962
:102D7000144833F008FE122304939DF807308DF8B1
:102D8000143004AB19460D484BF035FA0B4B0122B9
:102D900083F8CD200E23039303AB194607484BF06D
:102DA0002AFA02238DF8083002AB1946064849F08A
:102DB00096FE00BF07B05DF804FB00BF343B402027
:102DC000B4014020F0004020F838402030B58FB0EA
:102DD00005900599097808060599013109780904D3
:102DE0000843059902310978090201430598033027
:102DF0000078014308464B4908624A49096A0D9127
:102E00000D9900200A460346CDE90A230AAB18466D
:102E100059F0D4FA0C900C9B5B699BB203F26C7373
:102E20009AB2404B9A840C9B1B699BB201339AB2B5
:102E30003C4BDA840C9BDB689AB23A4B1A850C9BAC
:102E40009B689AB2374B5A850C9B5B689AB2354B9C
:102E50009A850C9B1B68DAB2324B83F82E20324BDA
:102E60001A88304B9B8C9A4257D22E4B1B8DADF853
:102E700020302C4BDB8CADF81E302A4B9B8CADF8F0
:102E80001C30284B5B8DADF82230264B9B8DADF866
:102E90002430244B93F82E308DF826300C9B1B6A7F
:102EA000002B19D1059B06331B78059A073212783F
:102EB00007A98D1D07A90C1D07A9023107A80392B8
:102EC000029307AB0A33019307AB083300932B46F9
:102ED00022460FF0CFFD1CE0059B06331B785B42BA
:102EE000DBB2059A073212785242D2B207A98D1D81
:102EF00007A90C1D07A9023107A80392029307AB8B
:102F00000A33019307AB083300932B4622460FF098
:102F1000B1FD07AB184629F00FFB0EF07FFE00BF96
:102F20000FB030BD503140208832402082B0019037
:102F3000019B1A78144B83F83920019B5A78124B65
:102F400083F83A20019B9A780F4B83F83B20019B32
:102F5000DA780D4B83F83C20019B1A790A4B83F8F1
:102F60003D20019B5A79084B83F83E20019B9A79BA
:102F7000054B83F83F20019BDA79034B83F840200F
:102F800000BF02B0704700BF5031402000B585B08F
:102F900011238DF80030094BDB6E184658F02EFADD
:102FA00002460B46CDE902236B461946044845F01C
:102FB000F9FD00BF05B05DF804FB00BF00384020FC
:102FC000002A402000B583B004238DF8043001AB03
:102FD000194603482EF05AFC00BF03B05DF804FB0D
:102FE0009846402000B583B003238DF8043001AB30
:102FF000194603482EF04AFC00BF03B05DF804FBFD
:103000009846402000B583B005238DF8043001AB0D
:10301000194603482EF03AFC00BF03B05DF804FBEC
:103020009846402000B583B006238DF8043001ABEC
:10303000194603482EF02AFC00BF03B05DF804FBDC
:103040009846402000B583B007238DF8043001ABCB
:10305000194603482EF01AFC00BF03B05DF804FBCC
:103060009846402000BF704700BF704700B583B04E
:1030700008238DF8043001AB194603482EF006FCF6
:1030800000BF03B05DF804FB9846402082B0019079
:10309000084BD3ED457A9FED087A67EE877AFCEE10
:1030A000E77A17EE903A9AB2019B1A8000BF02B0FD
:1030B000704700BF007F402000007A4482B001903A
:1030C000064B5B6E012B03D1019B01221A7002E0BB
:1030D000019B00221A7000BF02B07047F8364020F2
:1030E00082B00190084BD3ED4A7A9FED087A67EEE3
:1030F000877AFCEEE77A17EE903A9AB2019B1A8033
:1031000000BF02B0704700BF007F402000007A443B
:1031100082B00190084BD3ED597A9FED087A67EEA3
:10312000877AFCEEE77A17EE903A9AB2019B1A8002
:1031300000BF02B0704700BF007F402000007A440B
:1031400082B00190084BD3ED1D7A9FED087A67EEAF
:10315000877AFCEEE77A17EE903A9AB2019B1A80D2
:1031600000BF02B0704700BF007F402000007A44DB
:1031700082B00190084BD3ED227A9FED087A67EE7A
:10318000877AFCEEE77A17EE903A9AB2019B1A80A2
:1031900000BF02B0704700BF007F402000007A44AB
:1031A00082B00190084BD3ED277A9FED087A67EE45
:1031B000877AFCEEE77A17EE903A9AB2019B1A8072
:1031C00000BF02B0704700BF007F402000007A447B
:1031D00082B00190084BD3ED407A9FED087A67EEFC
:1031E000877AFCEEE77A17EE903A9AB2019B1A8042
:1031F00000BF02B0704700BF007F402000007A444B
:1032000082B00190084BD3ED547A9FED087A67EEB7
:10321000877AFCEEE77A17EE903A9AB2019B1A8011
:1032200000BF02B0704700BF007F402000007A441A
:1032300082B00190084BD3ED4F7A9FED087A67EE8C
:10324000877AFCEEE77A17EE903A9AB2019B1A80E1
:1032500000BF02B0704700BF007F402000007A44EA
:1032600082B00190064BD3ED187AFCEEE77A17EEA8
:10327000903A9AB2019B1A8000BF02B0704700BF1B
:10328000007F402082B00190064BD3ED317AFCEEF6
:10329000E77A17EE903A9AB2019B1A8000BF02B00B
:1032A000704700BF007F402082B00190064BD3EDF5
:1032B000087AFCEEE77A17EE903A9AB2019B1A80F0
:1032C00000BF02B0704700BF4440402082B0019070
:1032D000064BD3ED687AFCEEE77A17EE903A9AB295
:1032E000019B1A8000BF02B0704700BF007F4020E2
:1032F00082B00190064BD3ED637AFCEEE77A17EECD
:10330000903A9AB2019B1A8000BF02B0704700BF8A
:10331000007F402082B00190064BD3ED5E7AFCEE38
:10332000E77A17EE903A9AB2019B1A8000BF02B07A
:10333000704700BF007F402082B00190064BD3ED64
:103340000E7AFCEEE77A17EE903A9AB2019B1A8059
:1033500000BF02B0704700BF007F402082B00190E4
:10336000064BD3ED2C7AFCEEE77A17EE903A9AB240
:10337000019B1A8000BF02B0704700BF007F402051
:1033800082B00190064BD3ED137AFCEEE77A17EE8C
:10339000903A9AB2019B1A8000BF02B0704700BFFA
:1033A000007F402082B00190064BD3ED057AFCEE01
:1033B000E77A17EE903A9AB2019B1A8000BF02B0EA
:1033C000704700BF0040402000B583B019238DF83E
:1033D000043001AB194603482EF058FA00BF03B081
:1033E0005DF804FB9846402000B583B01A238DF8A1
:1033F000043001AB194603482EF048FA00BF03B071
:103400005DF804FB9846402000B583B01B238DF87F
:10341000043001AB194603482EF038FA00BF03B060
:103420005DF804FB9846402000B583B01C238DF85E
:10343000043001AB194603482EF028FA00BF03B050
:103440005DF804FB9846402000B583B01D238DF83D
:10345000043001AB194603482EF018FA00BF03B040
:103460005DF804FB9846402000B583B01E238DF81C
:10347000043001AB194603482EF008FA00BF03B030
:103480005DF804FB9846402000B583B01F238DF8FB
:10349000043001AB194603482EF0F8F900BF03B021
:1034A0005DF804FB9846402000B583B020238DF8DA
:1034B000043001AB194603482EF0E8F900BF03B011
:1034C0005DF804FB9846402000B583B021238DF8B9
:1034D000043001AB194603482EF0D8F900BF03B001
:1034E0005DF804FB9846402000B583B009238DF8B1
:1034F000043001AB194603482EF0C8F900BF03B0F1
:103500005DF804FB9846402000B583B00A238DF88F
:10351000043001AB194603482EF0B8F900BF03B0E0
:103520005DF804FB9846402000B583B00B238DF86E
:10353000043001AB194603482EF0A8F900BF03B0D0
:103540005DF804FB9846402000B583B00C238DF84D
:10355000043001AB194603482EF098F900BF03B0C0
:103560005DF804FB9846402000B583B00D238DF82C
:10357000043001AB194603482EF088F900BF03B0B0
:103580005DF804FB9846402000B583B00E238DF80B
:10359000043001AB194603482EF078F900BF03B0A0
:1035A0005DF804FB9846402000B583B00F238DF8EA
:1035B000043001AB194603482EF068F900BF03B090
:1035C0005DF804FB9846402000B583B010238DF8C9
:1035D000043001AB194603482EF058F900BF03B080
:1035E0005DF804FB9846402000B583B026238DF893
:1035F000043001AB194603482EF048F900BF03B070
:103600005DF804FB9846402000B583B027238DF871
:10361000043001AB194603482EF038F900BF03B05F
:103620005DF804FB9846402000B583B011238DF867
:10363000043001AB194603482EF028F900BF03B04F
:103640005DF804FB9846402000B583B013238DF845
:10365000043001AB194603482EF018F900BF03B03F
:103660005DF804FB9846402000B583B014238DF824
:10367000043001AB194603482EF008F900BF03B02F
:103680005DF804FB9846402000B583B015238DF803
:10369000043001AB194603482EF0F8F800BF03B020
:1036A0005DF804FB9846402000B583B016238DF8E2
:1036B000043001AB194603482EF0E8F800BF03B010
:1036C0005DF804FB9846402000B583B018238DF8C0
:1036D000043001AB194603482EF0D8F800BF03B000
:1036E0005DF804FB9846402000B583B017238DF8A1
:1036F000043001AB194603482EF0C8F800BF03B0F0
:103700005DF804FB9846402000B583B003468DF871
:1037100007309DF807301946034853F075F900BF8C
:1037200003B05DF804FB00BFB021402082B0034627
:103730008DF8073000BF02B0704700B583B0034674
:103740008DF807309DF807301946034853F075F996
:1037500000BF03B05DF804FBB021402082B00346F7
:103760008DF8073000BF02B0704782B00346009169
:103770008DF807309DF80730064A06339B00134446
:103780005B68DBB203F00103DAB2009B1A7000BF82
:1037900002B07047B021402082B0034600918DF8FE
:1037A000073000BF02B0704782B0034600918DF829
:1037B00007309DF80730074A14339B0013445B68B9
:1037C000DBB203F00103DAB2009B1A7000BF02B053
:1037D000704700BF5C3E402084B00190294B5B7C69
:1037E000DBB28DF80830274B9B7CDBB28DF80930BB
:1037F000244BDB7CDBB28DF80A30224B1B7DDBB225
:103800008DF80B301F4B5B7DDBB28DF80C301D4B00
:103810009B7DDBB28DF80D301A4BDB7DDBB28DF872
:103820000E30184B1B7EDBB28DF80F309DF8083040
:10383000002B1BD19DF80930002B17D19DF80A30C1
:10384000002B13D19DF80B30002B0FD19DF80C30BD
:10385000002B0BD19DF80D30002B07D19DF80E30B9
:10386000002B03D19DF80F30002B03D0019B0122C8
:103870001A7003E0019B00221A7000BF00BF04B061
:10388000704700BFDC16402084B00190294B9B7923
:10389000DBB28DF80830274BDB79DBB28DF80930CD
:1038A000244B1B7ADBB28DF80A30224B5B7ADBB2F9
:1038B0008DF80B301F4B9B7ADBB28DF80C301D4B13
:1038C000DB7ADBB28DF80D301A4B1B7BDBB28DF847
:1038D0000E30184B5B7BDBB28DF80F309DF8083053
:1038E000002B1BD19DF80930002B17D19DF80A3011
:1038F000002B13D19DF80B30002B0FD19DF80C300D
:10390000002B0BD19DF80D30002B07D19DF80E3008
:10391000002B03D19DF80F30002B03D0019B012217
:103920001A7003E0019B00221A7000BF00BF04B0B0
:10393000704700BFD019402082B001900F4BD3EDEB
:103940000D7A9FED0F7AF4EEC77AF1EE10FA0DD5ED
:103950000A4BD3ED0D7A9FED0B7AF4EEC77AF1EEB8
:1039600010FA03DD019B01221A7003E0019B002283
:103970001A7000BF00BF02B0704700BF3003402084
:1039800000007A43000034C382B00190044BD3F8A6
:1039900000349AB2019B1A8000BF02B0704700BF8A
:1039A0009432402082B003468DF807309DF80730EE
:1039B000064A10339B001344D3ED007AFCEEE77AFD
:1039C00017EE903A9BB2184602B07047B0214020E3
:1039D00082B003468DF807300023184602B07047C6
:1039E00082B00190034B5B6B9AB2019B1A8000BFBF
:1039F00002B070475031402082B00190044B93F8E0
:103A000030309AB2019B1A8000BF02B0704700BFED
:103A10005031402082B00190144B1A78019B1A70EB
:103A2000019B0133114A52781A70019B02330F4AED
:103A300092781A70019B03330C4AD2781A70019B5A
:103A400004330A4A12791A70019B0533074A5279E6
:103A50001A70019B0633054A92791A70019B07334D
:103A6000024AD2791A7000BF02B07047287A40200B
:103A700082B00190144B1A78019B1A70019B01339C
:103A8000114A52781A70019B02330F4A92781A70C9
:103A9000019B03330C4AD2781A70019B04330A4A03
:103AA00012791A70019B0533074A52791A70019BEB
:103AB0000633054A92791A70019B0733024AD2797C
:103AC0001A7000BF02B07047207A402082B0019087
:103AD000144B1A78019B1A70019B0133114A5278DA
:103AE0001A70019B02330F4A92781A70019B0333BC
:103AF0000C4AD2781A70019B04330A4A12791A7060
:103B0000019B0533074A52791A70019B0633054A17
:103B100092791A70019B0733024AD2791A7000BF5A
:103B200002B07047307A402082B00190134B93F876
:103B3000D722019B1A70019B0133104A92F8D822B8
:103B40001A70019B02330D4A92F8D9221A70019B18
:103B5000033300221A70019B043300221A70019B68
:103B6000053300221A70019B063300221A70019B54
:103B7000073300221A7000BF02B070477847402018
:103B800000B583B032238DF8043001AB19460348E9
:103B90002CF0D7FC00BF03B05DF804FB7847402051
:103BA00000B583B022238DF8043001AB19460348D9
:103BB0002DF06CFE00BF03B05DF804FB984640207A
:103BC00000B583B023238DF8043001AB19460348B8
:103BD0002DF05CFE00BF03B05DF804FB984640206A
:103BE00000B583B025238DF8043001AB1946034896
:103BF0002DF04CFE00BF03B05DF804FB984640205A
:103C000000B583B024238DF8043001AB1946034876
:103C10002DF03CFE00BF03B05DF804FB9846402049
:103C200008B501220A21024890F00CFC00BF08BD33
:103C30001017294008B500220A21024890F002FC22
:103C400000BF08BD1017294000B583B002230093C0
:103C5000054B9B6D01936B46194604484FF0DBFF03
:103C600000BF03B05DF804FBF83640200038402068
:103C700000B583B00123019306238DF800306B4615
:103C80001946034844F08EFF00BF03B05DF804FB03
:103C9000002A402000B583B00023019306238DF84D
:103CA00000306B461946034844F07CFF00BF03B068
:103CB0005DF804FB002A402000B583B026238DF870
:103CC000043001AB1946034831F00BFC00BF03B0D0
:103CD0005DF804FB5C22402000B587B001900091A4
:103CE00008230393019B0493009B059303AB1946A0
:103CF000034855F0DFFA00BF07B05DF804FB00BFD2
:103D00009C36402000B583B0034600918DF8073003
:103D100013468DF806309DF80630002B0AD19DF829
:103D20000730012B06D99DF80730023B0099184651
:103D3000FFF7D2FF00BF03B05DF804FB82B003467B
:103D40000A468DF8073013468DF8063000BF02B0E2
:103D5000704700BF82B00190019B024A5A6600BFC3
:103D600002B07047C127450000B587B003238DF826
:103D700000300C4B9B6801930A4BDB680293094BA4
:103D80001B690393074B1B6B0493064B5B6B0593FB
:103D90006B461946044848F0A2FE00BF07B05DF824
:103DA00004FB00BF30034020F838402000B585B048
:103DB00003238DF80C300A4BD3ED0C7AFDEEE77A35
:103DC000CDED017A9DF804305BB28DF80D3003AB78
:103DD0001946044849F036FF00BF05B05DF804FB02
:103DE00030034020D839402000B583B0062301932A
:103DF00001AB1946034828F0E6FC00BF03B05DF8AC
:103E000004FB00BFF036402000B583B007230193C8
:103E100001AB1946034828F0D6FC00BF03B05DF89B
:103E200004FB00BFF036402008B504483CF01CFEFF
:103E300002483CF09CFF00BF08BD00BF300340209B
:103E400008B5024853F01EFB00BF08BDB81F402054
:103E500008B5024841F06CFC00BF08BD004040209E
:103E600008B500210E4851F02AFF9FED0E0A0221ED
:103E70000B4852F026FE9FED0B0A0321084852F032
:103E800020FE9FED080A0421054852F01AFE9FED1E
:103E9000050A0521024852F014FE00BF08BD00BF0C
:103EA000B02140200080BB4408B5024852F038FAE7
:103EB00000BF08BDB021402008B505480FF036FD11
:103EC00004480FF033FD04480FF030FD00BF08BD7B
:103ED000600E4020880E4020B00E402008B50548F6
:103EE0000FF0AEFF04480FF0ABFF04480FF0A8FF3F
:103EF00000BF08BD600E4020880E4020B00E40205C
:103F000008B5024856F002FB00BF08BDE439402066
:103F100008B5024843F03AFF00BF08BD603A4020B0
:103F200008B5024842F0C8FE00BF08BD503F40201F
:103F300008B5074851F07CFE064853F03FFA8C2341
:103F400028220E21034853F05CFA00BF08BD00BFD1
:103F500094324020343C402008B50121024855F0FD
:103F600079F900BF08BD00BF9C36402008B5024863
:103F70004DF0CEFA00BF08BDF836402008B5024823
:103F800044F0E6FD00BF08BD002A402008B5024805
:103F90004FF012FA00BF08BD0038402008B50248B3
:103FA00028F000FC00BF08BDF036402008B5104BDB
:103FB000DB6E012B0DD10F4B1B68032B04D10521A8
:103FC0000D4848F01DFD11E001210B4848F018FD97
:103FD0000CE00A4BDB68012B04D10521064848F0B0
:103FE0000FFD03E00121044848F00AFD00BF08BDB1
:103FF000F0004020343B4020F8384020D080402062
:1040000008B50D4B1B78022B14D00B4B93F82830BE
:10401000092B0BD8084841F08BFB074B93F828304D
:104020000133DAB2044B83F8282003E0024B01226B
:1040300083F8292000BF08BD0040402008B506488D
:1040400041F03EFC044B1B78022B02D1024841F0A8
:10405000ABFC00BF08BD00BF0040402008B50248CF
:1040600049F0D8FD00BF08BDD839402008B5024846
:104070002DF0E2FB00BF08BD9846402070B58AB025
:104080008B4B0F22C3F86024894B03F58053112218
:1040900083F82C20864B03F580534E2283F82D2085
:1040A000834B03F580534D2283F82E20804B03F57C
:1040B00080534A2283F82F207D4B03F58053312211
:1040C00083F830207A4B03F58053342283F8312073
:1040D000774B03F58053312283F83220744B03F57C
:1040E0008053302283F83320714B03F58053302204
:1040F00083F834206E4B03F58053372283F8352044
:104100006B4B03F58053392283F83620684B03F557
:1041100080532D2283F83720654B03F580533122DD
:1041200083F83820624B03F58053302283F839201E
:104130005F4B03F58053372283F83A205C4B03F53D
:104140008053432283F83B20594B03F58053E322ED
:1041500083F83C20574B1A78554B03F5805383F86E
:104160003D20544B5A78524B03F5805383F83E2040
:10417000504B9A784E4B03F5805383F83F204D4BBC
:104180001A794B4B03F5805383F84020494BDA7979
:10419000474B03F5805383F84320464B5A79444BF1
:1041A00003F5805383F84120424B9A79404B03F545
:1041B000805383F842203E4B03F580534E2283F810
:1041C00045203B4B03F580534D2283F84620384B66
:1041D00003F580534A2283F84720354B03F580537B
:1041E000312283F84820324B03F58053342283F880
:1041F00049202F4B03F58053312283F84A202C4B62
:1042000003F58053302283F84B20294B03F580536C
:10421000302283F84C20264B03F58053352283F857
:104220004D20234B03F58053302283F84E20204B42
:1042300003F580532D2283F84F201D4B03F5805347
:10424000E32283F850201C4B1A78194B03F5805356
:1042500083F85120184B5A78154B03F5805383F897
:104260005220154B9A78124B03F5805383F8532054
:104270000F4B03F580531E460D4B03F5805304ACE2
:1042800003F1450528686968AA68EB680FC42B7CB0
:1042900023706C4606F138030FCB07C4237006F178
:1042A0002C030ECB024834F015F900BF0AB070BDE4
:1042B0008C044020207A4020307A402000B58BB01A
:1042C000B04B93F84C30002B0CD0AE4B93F84C30E5
:1042D000013BDAB2AB4B83F84C20AA4B012283F8A6
:1042E0004D2006E0A74B002283F84D20A54813F08F
:1042F000CBF8A44B93F8DC30002B0CD0A14B93F8F7
:10430000DC30013BDAB29F4B83F8DC209D4B01226D
:1043100083F8DD2006E09B4B002283F8DD209948DE
:1043200013F08CF9974B93F89C30002B0CD0954BE5
:1043300093F89C30013BDAB2924B83F89C20914B6E
:10434000012283F89D2006E08E4B002283F89D20F9
:104350008C4813F0FCF88B4B93F80831002B15D0E8
:10436000884B93F80831013BDAB2864B83F8082179
:10437000844B012283F809210F230893A123099379
:1043800008AB1946804842F0EDFC0FE07D4B00225F
:1043900083F809210F230693E023079306AB194600
:1043A000794842F0DFFC774813F0B6F9754B93F883
:1043B0004431002B0CD0734B93F84431013BDAB2FB
:1043C000704B83F844216F4B012283F8452106E0AE
:1043D0006C4B002283F845216A4813F016FA694BAA
:1043E00093F82C31002B0CD0664B93F82C31013B09
:1043F000DAB2644B83F82C21624B012283F82D2121
:1044000006E0604B002283F82D215E4813F0D4F9BA
:104410005C4B93F8B030002B0CD05A4B93F8B03073
:10442000013BDAB2574B83F8B020564B012283F898
:10443000B12006E0534B002283F8B120514813F01D
:10444000D5F8504B93F82C30002B0CD04D4B93F8F3
:104450002C30013BDAB24B4B83F82C20494B012224
:1044600083F82D2006E0474B002283F82D20454895
:1044700012F0AEFF434B93F86C30002B0CD0414B45
:1044800093F86C30013BDAB23E4B83F86C203D4B25
:10449000012283F86D2006E03A4B002283F86D205C
:1044A000384813F033F8374B93F85C31002B0CD0BD
:1044B000344B93F85C31013BDAB2324B83F85C2128
:1044C000304B012283F85D2106E02E4B002283F859
:1044D0005D212C4813F0B4F92A4B93F87431002B6A
:1044E0000CD0284B93F87431013BDAB2254B83F89A
:1044F0007421244B012283F8752106E0214B002210
:1045000083F875211F4813F0B4F9204B93F8283035
:10451000002B15D01D4B93F82830013BDAB21B4B12
:1045200083F82820194B012283F829200E230493B5
:10453000A123059304AB1946134842F013FC0FE086
:10454000124B002283F829200E230293E0230393C9
:1045500002AB19460C4842F005FC0C4814F006F971
:104560000A4B93F8D830002B12D0084B93F8D83070
:10457000013BDAB2054B83F8D820044B012283F8C3
:10458000D9200CE034254020503F4020B026402068
:10459000A34B002283F8D920A14814F00DFAA04BB8
:1045A00093F8A430002B0CD09D4B93F8A430013B22
:1045B000DAB29B4B83F8A420994B012283F8A52003
:1045C00006E0974B002283F8A520954814F09AF94D
:1045D000934B93F87430002B0CD0914B93F87430BC
:1045E000013BDAB28E4B83F874208D4B012283F8A5
:1045F000752006E08A4B002283F87520884814F065
:104600005DF9874B93F85430002B0CD0844B93F812
:104610005430013BDAB2824B83F85420804B0122A4
:1046200083F8552006E07E4B002283F855207C4815
:1046300014F018F97A4B93F8F030002B0CD0784B2B
:1046400093F8F030013BDAB2754B83F8F020744BED
:10465000012283F8F12006E0714B002283F8F1205B
:104660006F4814F031FA6E4B93F80931002B0CD0DF
:104670006B4B93F80931013BDAB2694B83F809219E
:10468000674B012283F80A2106E0654B002283F87C
:104690000A21634814F035FA624B1B6A002B09D0DB
:1046A000604B1B6A013B5F4A13625E4B012283F839
:1046B000242006E05B4B002283F82420594814F0A4
:1046C00063FB594B1B6B002B09D0574B1B6B013BFA
:1046D000554A1363544B012283F8342006E0524BB1
:1046E000002283F83420504814F068FD4F4BDB69FA
:1046F000002B09D04D4BDB69013B4C4AD3614B4B3E
:10470000012283F8202006E0484B002283F8202075
:10471000464814F055FE464BDB6A002B09D0444B4B
:10472000DB6A013B424AD362414B012283F83020CD
:1047300006E03F4B002283F830203D4814F032FF62
:104740003C4B93F84C30002B0CD03A4B93F84C3048
:10475000013BDAB2374B83F84C20364B012283F809
:104760004D200FE0334B002283F84D201923009396
:10477000E02301936B4619462F4849F03CFD2D4834
:1047800016F0A9FB2B4B93F86830002B0CD0294B6B
:1047900093F86830013BDAB2264B83F86820254B4A
:1047A000012283F8692006E0224B002283F8692069
:1047B000204816F0D1FB1F4B9B7E002B09D01D4BD0
:1047C0009B7E013BDAB21B4B9A761A4B0122DA76BA
:1047D00005E0184B0022DA76164816F05FFB154B01
:1047E0001B7A002B09D0134B1B7A013BDAB2114B19
:1047F0001A72104B01225A7205E00E4B00225A72B7
:104800000C4816F037FB0D4B5B6B002B18D00B4B95
:104810005B6B013B094A5363084BAC229A6312E07D
:10482000B0264020C02740200C284020E827402008
:104830004428402078284020343B4020203040202D
:10484000264BEC229A63264B1B68042B42D1254B46
:10485000D3F80034002B22D0224BD3F80034013B94
:10486000204AC2F800341F4B012283F804241E4B57
:104870000022DA601C4B1A681B4B5B685B001A4312
:10488000194B9B689B001A43174BDB68DB001A43EC
:10489000154B1B691B011343134A53611AE0124B5A
:1048A0000122DA600F4B002283F804240E4B1A68B1
:1048B0000D4B5B685B001A430B4B9B689B001A43D4
:1048C000094BDB68DB001A43074B1B691B011343D1
:1048D000054A536100BF0BB05DF804FB2030402057
:1048E000343B402094324020F00C402000B583B08F
:1048F00000238DF807300D4B1B6DDBB28DF80730B0
:104900000B4B93F85E3098B2094B93F85F3099B235
:10491000074BB3F85C300DF1070252F063FA012047
:104920000DF04EFF00BF03B05DF804FBF000402027
:104930003C7C402000B583B000238DF807300D4B40
:10494000DB6CDBB28DF807300B4B93F8563098B226
:10495000094B93F8573099B2074BB3F854300DF127
:10496000070252F03FFA01200DF02AFF00BF03B00A
:104970005DF804FBF00040203C7C402000B58BB08B
:104980004B4B1B68002B40F0828025F0BBFD494B50
:10499000DB6E012B53D1474B1B6D092B2BD1022210
:1049A0000121434849F096FA1223089301238DF818
:1049B000243008AB19463E4849F01DFC3C4B01220F
:1049C00083F8CD200E23079307AB1946384849F0EA
:1049D00012FC02238DF8183006AB1946364848F011
:1049E0007EF8344B012283F8BB20324B00221A653B
:1049F000FFF77CFF4BE02F4B1B6D0A2B19D10722D1
:104A000001212B4849F066FA294B012283F8CE2078
:104A10001023059305AB1946254849F0ECFB254BBF
:104A200000221A65FFF762FF224B012283F8B020B3
:104A30002DE0022201211E4849F04CFA27E01F4BCD
:104A4000DB68012B1ED102220121194849F042FAEC
:104A50001223039301238DF8103003AB1946144839
:104A600049F0C9FB0E23029302AB1946104849F0E6
:104A7000C2FB02238DF8043001AB19460E4848F002
:104A80002EF804E001220021094849F023FA094BDD
:104A90001B6D0B2B08D1074B012283F8B120054B6E
:104AA00000221A65FFF722FF00BF0BB05DF804FB80
:104AB000343B4020F0004020F8384020D080402097
:104AC00008B5064B93F83930002B05D103483CF06C
:104AD0004EF902483CF096FA00BF08BD3003402072
:104AE00008B5024850F07EFE00BF08BD9432402059
:104AF00000B583B00D4827F02AFD20238DF8003043
:104B00000A4BDB88ADF80230084B1B89ADF8043046
:104B1000064B9B7A8DF806306B461946044844F0E4
:104B200041F800BF03B05DF804FB00BF88324020AD
:104B3000002A402008B502484FF09AFC00BF08BD8B
:104B40004440402000B585B010238DF80C301E4B3A
:104B50001B6E012B03D164238DF80D3002E000237E
:104B60008DF80D3003AB1946184844F01BF80F239D
:104B70008DF80830144B5B6E012B03D164238DF844
:104B8000093002E000238DF8093002AB19460F48C6
:104B900044F008F80A238DF804300B4B1B6E002BF1
:104BA00003D1094B5B6E002B01D0012300E00023F1
:104BB000DBB28DF8053001AB1946044843F0F2FF33
:104BC00000BF05B05DF804FB5C3E4020002A402099
:104BD00000B583B014238DF8043001AB19460348A7
:104BE00043F0E0FF00BF03B05DF804FB002A402063
:104BF00000B583B015238DF8043001AB1946034886
:104C000043F0D0FF00BF03B05DF804FB002A402052
:104C100000B583B016238DF8043001AB1946034864
:104C200043F0C0FF00BF03B05DF804FB002A402042
:104C300000B583B013238DF8043001AB1946034847
:104C400043F0B0FF00BF03B05DF804FB002A402032
:104C500000B583B012238DF8043001AB1946034828
:104C600043F0A0FF00BF03B05DF804FB002A402022
:104C700000B583B00023019301AB1946034855F0FA
:104C80006EFC00BF03B05DF804FB00BFE4394020B8
:104C900000B583B00923019301AB194603484EF0D8
:104CA000BAFF00BF03B05DF804FB00BF003840202E
:104CB00000B583B00A23019301AB194603484EF0B7
:104CC000AAFF00BF03B05DF804FB00BF003840201E
:104CD00000B583B00723019301AB194603484CF09C
:104CE0005FFC00BF03B05DF804FB00BFF836402056
:104CF00000B583B00823019301AB194603484CF07B
:104D00004FFC00BF03B05DF804FB00BFF836402045
:104D100000B583B00923019301AB194603484CF059
:104D20003FFC00BF03B05DF804FB00BFF836402035
:104D300008B5044B00221A600249034849F05BFAA7
:104D400000BF08BD203C4020343B402000B583B06C
:104D5000CA238DF8043001AB1946034847F0BFFE63
:104D600000BF03B05DF804FBF838402000B583B005
:104D7000CA238DF8043001AB1946034848F062FF9E
:104D800000BF03B05DF804FBD839402000B583B004
:104D90000D4B00221A600C490C4849F02CFA0B4BC1
:104DA0001B68062B0CD10A4B93F87A30002B07D0E6
:104DB00026238DF8043001AB1946064830F091FBEC
:104DC00000BF03B05DF804FB203C4020343B402092
:104DD000F83640205C22402000B583B000230193C8
:104DE00001AB1946034841F0BDFF00BF03B05DF8B9
:104DF00004FB00BF503F402000B583B00B2301935C
:104E000001AB1946034843F035F800BF03B05DF825
:104E100004FB00BF603A402000B583B0002301933B
:104E200001AB1946034843F025F800BF03B05DF815
:104E300004FB00BF603A402000B583B00D2301930E
:104E400001AB1946034843F015F800BF03B05DF805
:104E500004FB00BF603A402008B5044B01221A70E1
:104E60000249034833F0E7FD00BF08BD300A402087
:104E70008C04402008B5044B02221A7002490348F2
:104E800033F0D9FD00BF08BD300A40208C0440201B
:104E900000B585B003238DF804300F23029300235F
:104EA0008DF80C3001AB1946034833F0C4FD00BF48
:104EB00005B05DF804FB00BF8C04402000B583B052
:104EC0000C238DF80030012301936B4619460348EB
:104ED00047F005FE00BF03B05DF804FBF838402042
:104EE00000B583B00C238DF80030002301936B468E
:104EF0001946034847F0F3FD00BF03B05DF804FB1B
:104F0000F838402000B583B019238DF8043001AB88
:104F10001946074830F0E5FA29238DF800306B4632
:104F2000194604482BF00DFB00BF03B05DF804FBED
:104F30005C2240207847402000B583B01A238DF8CA
:104F4000043001AB1946074830F0CBFA2A238DF81C
:104F500000306B46194604482BF0F3FA00BF03B04B
:104F60005DF804FB5C2240207847402000B583B008
:104F70001B238DF8043001AB1946074830F0B1FA15
:104F80002B238DF800306B46194604482BF0D9FAD4
:104F900000BF03B05DF804FB5C224020784740204E
:104FA00000B583B01C238DF8043001AB19460748C7
:104FB00030F097FA2C238DF800306B4619460448E0
:104FC0002BF0BFFA00BF03B05DF804FB5C22402069
:104FD0007847402000B583B018238DF8043001AB2A
:104FE0001946074830F07DFA28238DF800306B46CB
:104FF000194604482BF0A5FA00BF03B05DF804FB86
:105000005C2240207847402000B583B00A230193FA
:1050100001AB1946034854F04DF900BF03B05DF8E9
:1050200004FB00BF9C36402000B583B000230193F1
:1050300001AB1946034827F0C6FB00BF03B05DF87B
:1050400004FB00BFF036402000B583B000238DF88C
:10505000043001AB194603482CF018FC00BF03B024
:105060005DF804FB9846402000B583B0002301930F
:1050700001AB194603482EF01EFE00BF03B05DF8D9
:1050800004FB00BF4846402008B502483BF0F8FD4D
:1050900000BF08BD3003402008B502484FF089FA30
:1050A00000BF08BD5C3E402008B502482FF0B6F8AE
:1050B00000BF08BD040B402000BF704700B583B09F
:1050C000244BD3E900014FF00002234B56F018FBAC
:1050D00002460B461046194656F0C0FC01461F4BCF
:1050E000A3FB0123DA0813469B0013445B00CA1A92
:1050F000D2B21B4B1A701A4B1B78DAB2194B1B78C1
:10510000DBB29A4205D00EF0BBFA012116482FF00F
:105110006BFC002301930F4BD3E900014FF0000219
:10512000124B56F0EDFA02460B461046194656F061
:1051300095FC034601930E4B1B68019A9A4204D0DA
:105140000EF0F0FA0A4A019B136000BF03B05DF84D
:1051500004FB00BF380E402000005940CDCCCCCC21
:105160004D0E40204E0E40206C40402000408F40AD
:10517000440E402008B5044B1B78002B01D021F0D1
:10518000F5FD00BF08BD00BF9F56402008B5064B87
:105190001B78DBB2012B05D1044831F0D3FA024B66
:1051A00000221A7000BF08BDFE1140205C22402082
:1051B00008B5024852F060FC00BF08BDB81F40208F
:1051C00008B502482FF08CFB00BF08BD6C404020A2
:1051D00008B502482FF042FB00BF08BD6C404020DC
:1051E00008B5024851F080FC00BF08BDB021402046
:1051F00008B502482FF0A0FA00BF08BD9831402042
:1052000000B585B0304BD3F8B430022B57D12F4BBB
:105210001B78002B53D02E4B1B8907EE903AB8EE2B
:10522000677ADFED2C6AC7EE267AB2EE097AF4EEE1
:10523000C77AF1EE10FA15DD1423039303AB194678
:10524000254855F08CF932238DF8083000238DF86D
:10525000093002AB19461C4831F095FB1B4B00226C
:105260001A702CE01A4B1B8907EE903AB8EE677A59
:10527000DFED186AC7EE267AB2EE097AF4EEC77A45
:10528000F1EE10FA00D91AE0114B1B8907EE903AA3
:10529000B8EE677ADFED0F6AC7EE267AF5EEC07AD0
:1052A000F1EE10FA00DC0AE032238DF8043001231D
:1052B0008DF8053001AB1946034831F064FB00BF9F
:1052C00005B05DF804FB00BFF0004020EC0040207A
:1052D0009831402000007A44E439402082B00190A7
:1052E000064BDB68002B14BF01230023DBB21A46F8
:1052F000019B1A7000BF02B0704700BFD0804020F1
:1053000008B502482EF0AEFC00BF08BD484640205C
:1053100082B00190064B1B68042B03D1019B012234
:105320001A7002E0019B00221A7000BF02B07047A1
:105330009C36402000B583B0144B9B6D0F2219465C
:10534000134851F097FF134BD3F8EC31042B04D0E2
:10535000104BD3F8EC31022B12D10F4B1B68042BEE
:105360000ED10E4B1B68042B0AD00D4B1B68012B72
:1053700006D10323019301AB1946084853F09AFF65
:105380000FF072FA00BF03B05DF804FB5C3E4020F2
:10539000143E4020343C4020343B40209C3640208A
:1053A0009846402008B5074B9B6E102219460648C8
:1053B00051F060FF054B1B68012B01D10FF054FA2F
:1053C00000BF08BD5C3E4020343E4020984640204F
:1053D00008B501220021024848F07CFD00BF08BD4D
:1053E000343B402082B00190064BD3F8D430002BE0
:1053F00014BF01230023DBB21A46019B1A7000BFC1
:1054000002B07047D080402082B00190064BDB6E26
:10541000002B14BF01230023DBB21A46019B1A7034
:1054200000BF02B0704700BFD080402082B0019022
:10543000064BD3F89430002B14BF01230023DBB2BA
:105440001A46019B1A7000BF02B07047D0804020FE
:1054500082B00190064BDB6B002B14BF01230023AD
:10546000DBB21A46019B1A7000BF02B0704700BF42
:10547000D080402008B502482FF02DFB00BF08BDAA
:105480002C0B402008B5024839F050FC00BF08BD85
:105490000447402000B583B00023019301AB1946B7
:1054A000034839F06FFC00BF03B05DF804FB00BF98
:1054B0000447402000B583B00223019301AB194695
:1054C000034839F05FFC00BF03B05DF804FB00BF88
:1054D0000447402000B583B00123019301AB194676
:1054E000034839F04FFC00BF03B05DF804FB00BF78
:1054F0000447402008B5024852F0E8FD00BF08BD4F
:10550000B81F402008B5024852F049FA00BF08BD54
:10551000B81F402008B502482FF0A0FA00BF08BD10
:105520006C40402000B585B003468DF807309DF8EB
:1055300007308DF80D3033238DF80C3003AB19464E
:10554000034831F020FA00BF05B05DF804FB00BF4E
:10555000F000402000B585B003468DF807309DF877
:1055600007308DF80D3032238DF80C3003AB19461F
:10557000034831F008FA00BF05B05DF804FB00BF36
:10558000F000402000B583B0134B93F8863198B2F9
:10559000114B93F8873199B26A46072351F042FDC7
:1055A0009DF800200D4B1A709DF801200B4B5A708E
:1055B0009DF80220094B9A709DF80320074B5A7101
:1055C0009DF80420054B9A719DF80520034BDA7174
:1055D00000BF03B05DF804FB3C7C4020287A4020EB
:1055E00000B583B081238DF8043001AB1946034820
:1055F0002AF0A7FF00BF03B05DF804FB7847402006
:1056000000B583B0064827F063FA0523019301AB88
:105610001946034827F09BFA00BF03B05DF804FB6E
:10562000A840402000B583B00023019301AB194688
:10563000034827F08CFA00BF03B05DF804FB00BFFD
:10564000A840402000B583B00223019301AB194666
:10565000034827F07CFA00BF03B05DF804FB00BFED
:10566000A840402000B583B00123019301AB194647
:10567000034827F06CFA00BF03B05DF804FB00BFDD
:10568000A8404020044B4FF4FA725A63024BAC22FC
:105690009A6300BF704700BF2030402008B5072242
:1056A0000121024848F016FC00BF08BD343B4020F1
:1056B00082B00190194BD3F88830012B04D0174BDE
:1056C000D3F89030012B21D1144BD3F89430002B18
:1056D0001CD1124BD3F88C30002B17D10F4BD3F8C1
:1056E0008030002B12D10D4BD3F88430002B0DD11C
:1056F0000A4BD3F89830002B08D1084BD3F89C30D4
:10570000002B03D1019B01221A7003E0019B0022B0
:105710001A7000BF00BF02B0704700BFF000402009
:1057200082B00190064B1B68012B03D1019B002224
:105730001A7002E0019B01221A7000BF02B070478C
:105740009846402008B502483BF08EFA00BF08BDDD
:105750003003402082B00190064B1B68012B03D11F
:10576000019B01221A7002E0019B00221A7000BF07
:1057700002B070477C32402082B00190074B93F812
:105780003930012B03D1019B01221A7002E0019BE9
:1057900000221A7000BF02B0704700BF30034020E3
:1057A00000B583B0022118488EF0EEFF03461A467A
:1057B000164B1A70154B1B78012B20D1144B0193FB
:1057C00000BF019B1B7DDBB2002BFAD18E2072F053
:1057D000D8FD01207AF0B8F8012079F0E9FB00202B
:1057E00010F044FC0022022107488EF02BFE02211B
:1057F00005488EF0C9FF03461A46044B1A7000BFD5
:1058000003B05DF804FB00BF00172940840040206E
:10581000F0B2402000BF704708B5044B4B221A601D
:105820000249034848F0E7FC00BF08BD203C402087
:10583000343B402008B5084B1B68002B03D10121E5
:10584000054853F007FD054B1B68002B02D10348A8
:1058500026F0A8FF00BF08BD9C364020F03640204F
:1058600000B583B00C23019301AB1946034853F0F4
:1058700021FD00BF03B05DF804FB00BF9C36402053
:1058800008B50021024851F0BFF800BF08BD00BFB5
:10589000B021402008B50021024851F0CEF800BFE9
:1058A00008BD00BFB021402000B583B0062301939E
:1058B00001AB1946034853F0FDFC00BF03B05DF88F
:1058C00004FB00BF9C36402000B583B00723019342
:1058D00001AB1946034853F0EDFC00BF03B05DF87F
:1058E00004FB00BF9C36402000B583B00023019329
:1058F00001AB1946034853F0DDFC00BF03B05DF86F
:1059000004FB00BF9C36402000B583B00123019307
:1059100001AB1946034853F0CDFC00BF03B05DF85E
:1059200004FB00BF9C36402000B583B002230193E6
:1059300001AB1946034853F0BDFC00BF03B05DF84E
:1059400004FB00BF9C36402000B583B00D4B1B68A4
:10595000042B12D10C4B1B68042B07D0032301939B
:1059600001AB1946084853F0A5FC06E00423009358
:105970006B461946044853F09DFC00BF03B05DF828
:1059800004FB00BF343B40209C36402000B585B06E
:105990000D4BD3F89433002B09D109230293002334
:1059A000039302AB1946094854F0D9FD08E00923D6
:1059B0000093012301936B461946044854F0CFFD30
:1059C00000BF05B05DF804FB94324020E43940206C
:1059D00000B585B00823019302230293064BD3F848
:1059E0002C31039301AB1946044842F043FA00BF3F
:1059F00005B05DF804FB00BF94324020603A4020BF
:105A000000B585B00823019303230293064BD3F816
:105A10006C31039301AB1946044842F02BFA00BFE6
:105A200005B05DF804FB00BF94324020603A40208E
:105A300000B585B00823019304230293064BD3F8E5
:105A40004C31039301AB1946044842F013FA00BFEE
:105A500005B05DF804FB00BF94324020603A40205E
:105A600000B583B00823019301AB194603482EF01B
:105A700022F900BF03B05DF804FB00BF4846402098
:105A800000B583B00D4B1B68022B12D10B4B5B6A28
:105A9000002B07D10923019301AB194607482EF0CB
:105AA0000AF906E0092300936B46194603482EF0D5
:105AB00002F900BF03B05DF804FB00BF4846402078
:105AC00000B585B0144B1B68042B20D1134B9B6B86
:105AD000012B0CD11323029300230393104B0022BC
:105AE000DA6702AB19460D4841F03CF90BE013238D
:105AF0000093012301930A4B0122DA676B46194692
:105B0000064841F02FF9074B012283F8BF2000BF60
:105B100005B05DF804FB00BF343B4020503F4020FF
:105B200020304020F000402000BF704700B583B017
:105B300001901A4B93F8363198B2184B93F83731DD
:105B400099B2019B03F22732082351F06BFA0A2025
:105B50000CF036FE114B93F8363198B2019B03F2EC
:105B60002F320823082151F05DFA0A200CF028FE9C
:105B70000A4B93F83E3198B2084B93F83F3199B2F3
:105B8000019B03F23732012351F04CFA0A200CF04A
:105B900017FE00BF03B05DF804FB00BF3C7C402053
:105BA00000B583B001900A4B93F8763198B2084B58
:105BB00093F8773199B2019B03F55B72082351F09A
:105BC00031FA0A200CF0FCFD00BF03B05DF804FBC5
:105BD0003C7C402000B583B00190094B93F80E3116
:105BE00098B2074B93F80F3199B2019B03F55372AA
:105BF000042351F017FA00BF03B05DF804FB00BFA7
:105C00003C7C402000B595B0019002AB24220021DD
:105C1000184656F0FFFC019B93F88C340493019BCB
:105C200093F88D340393019B93F88E340293019B78
:105C300093F88B340593019B93F88A34013B0693C8
:105C4000019BB3F88834A3F26C730793019B93F81C
:105C50009234002B14BF01230023DBB20A9302AB62
:105C6000184656F0B7FDCDE91001DDE91023B3F178
:105C7000FF3F08BFB2F1FF3F01D1002351E0019B7C
:105C8000B3F990341A464FF4617302FB03F3139394
:105C9000019B93F98F342D2B02D1139B5B421393FD
:105CA000139B0F930F9B1B0EDAB2019B83F86823A3
:105CB0000F9B1B0CDAB2019B83F869230F9B1B0A15
:105CC000DAB2019B83F86A230F9BDAB2019B83F857
:105CD0006B23DDE91023CDE90C23DDE90C23002B38
:105CE00003DBDDE90C23012B01DB002319E00C9B16
:105CF0000B930B9B1B0EDAB2019B83F838230B9B93
:105D00001B0CDAB2019B83F839230B9B1B0ADAB216
:105D1000019B83F83A230B9BDAB2019B83F83B2368
:105D20000123184615B05DF804FB84B0039002917E
:105D300001920B4B93F80531002B0DD0084B9A685C
:105D4000039B1A60064BDA68029B1A60044B1A69BF
:105D5000019B1A60012300E00023184604B070473D
:105D60003003402008B5384A92F8E83043F0010388
:105D700082F8E830344A92F8E83043F0020382F8BF
:105D8000E830314A92F8E83043F0040382F8E83012
:105D90002D4A92F8E83043F0080382F8E8302A4AA6
:105DA00092F8E83043F0100382F8E830264A92F87F
:105DB000E83043F0200382F8E830234A92F8E830D4
:105DC00043F0400382F8E8301F4A92F8EC3043F089
:105DD000010382F8EC301C4A92F8EC3043F00403E3
:105DE00082F8EC30184A92F8F03043F0010382F860
:105DF000F030154A92F8F03043F0020382F8F030A8
:105E0000114A92F8F03043F0040382F8F0300E4A61
:105E100092F8F03043F0080382F8F0300A4A92F822
:105E2000F03043F0100382F8F030074A92F8F03077
:105E300043F0200382F8F03003484EF095FB02480F
:105E40004EF0DCFB00BF08BD5C3E4020034B1B78DE
:105E5000DAB2034B1A7000BF704700BFF97E4020D2
:105E6000FB7E402008B5044B04221A700249034807
:105E700030F089FD00BF08BDB4014020F000402093
:105E800008B5044B05221A700249034830F07BFD27
:105E900000BF08BDB4014020F000402082B0019056
:105EA000064B1B6F012B0CBF01230023DBB21A46EC
:105EB000019B1A7000BF02B0704700BFF000402085
:105EC000024B01221A7000BF704700BF9F5640204E
:105ED000024B00221A7000BF704700BF9F5640203F
:105EE00000B583B00A238DF8043001AB194603488E
:105EF0002FF0F7FA00BF03B05DF804FB5C224020EE
:105F000000B583B00B238DF8043001AB194603486C
:105F10002FF0E7FA00BF03B05DF804FB5C224020DD
:105F200000B583B00C238DF8043001AB194603484B
:105F30002FF0D7FA00BF03B05DF804FB5C224020CD
:105F400000B583B00D238DF8043001AB194603482A
:105F50002FF0C7FA00BF03B05DF804FB5C224020BD
:105F600000B583B00E238DF8043001AB1946034809
:105F70002FF0B7FA00BF03B05DF804FB5C224020AD
:105F800000B583B00F238DF8043001AB19460348E8
:105F90002FF0A7FA00BF03B05DF804FB5C2240209D
:105FA00000B583B010238DF8043001AB19460348C7
:105FB0002FF097FA00BF03B05DF804FB5C2240208D
:105FC00000B583B011238DF8043001AB19460348A6
:105FD0002FF087FA00BF03B05DF804FB5C2240207D
:105FE00000B583B01E238DF8043001AB1946034879
:105FF0002FF077FA00BF03B05DF804FB5C2240206D
:1060000000B583B01F238DF8043001AB1946034857
:106010002FF067FA00BF03B05DF804FB5C2240205C
:1060200000B583B001238DF80430094B93F8FE319D
:1060300098B2074B93F8FF3199B2054BB3F8FC3196
:1060400001AA50F0CFFE00BF03B05DF804FB00BF13
:106050003C7C402000B585B0019009230293019B50
:10606000039302AB1946034838F08CFE00BF05B01D
:106070005DF804FB0447402000B585B0019005237E
:106080000293019B93F860358DF80C3002AB1946F2
:10609000034838F077FE00BF05B05DF804FB00BF91
:1060A0000447402000B589B0019006230393019B6B
:1060B00093F850358DF81030019BD3F85435059383
:1060C000019BD3F85835069303AB1946034838F0C3
:1060D00059FE00BF09B05DF804FB00BF0447402033
:1060E00000B597B001900B468DF80330072302935B
:1060F0009DF803308DF854309DF803109DF803206F
:1061000001980B469B000B449B00034403F58E63F0
:10611000196813465B001344DB0016AA1344443B82
:1061200019609DF803109DF8032001980B469B0011
:106130000B449B00034403F27443196813465B004D
:106140001344DB0016AA1344403B19609DF803106A
:106150009DF8032001980B469B000B449B000344D1
:1061600003F26C43196813465B001344DB0016AA64
:106170001344483B196002AB1946034838F002FE4D
:1061800000BF17B05DF804FB0447402000B583B0A2
:1061900032238DF8043001AB194603482AF0D1F9B7
:1061A00000BF03B05DF804FB7847402000BF704794
:1061B00008B532200CF004FB00BF08BD00B583B069
:1061C00023238DF8043001AB194603482FF089F9D9
:1061D00000BF03B05DF804FB5C22402000BF7047A5
:1061E00000B583B025238DF8043001AB1946034870
:1061F0002FF077F900BF03B05DF804FB5C2240206C
:1062000000B583B00190074BD3E90023104619462F
:1062100055F044FC0246019B1A6000BF03B05DF8D4
:1062200004FB00BF380E402082B00190064B93F86B
:10623000383007EE903AF8EE677A019BC3ED007AAA
:1062400000BF02B0704700BFF836402000B583B0F1
:10625000072300936B46194603484DF0DCFC00BF52
:1062600003B05DF804FB00BF0038402000B585B0E6
:1062700020238DF80C3003AB19460B482FF031F971
:1062800021238DF8083002AB194607482FF029F971
:1062900022238DF8043001AB194603482FF021F971
:1062A00000BF05B05DF804FB5C22402082B0019085
:1062B00000BF02B0704700BF00B583B008238DF85F
:1062C000043001AB194603482FF00BF900BF03B0AF
:1062D0005DF804FB5C22402000B583B003230193EA
:1062E00001AB1946034826F06EFA00BF03B05DF813
:1062F00004FB00BFF036402008B5044B1F221A7083
:106300000249034830F03FFB00BF08BDB401402004
:10631000F000402082B0019000BF02B0704782B010
:10632000019000BF02B0704782B08DED010A0346B4
:106330008DF8033000BF02B0704784B08DED020BC2
:1063400003468DF8073000BF04B0704782B00346A3
:106350008DF8073000BFB0EE670A02B0704782B018
:1063600003468DF8073000BFB0EE670A02B07047F1
:1063700082B0019000BF02B0704700BF82B00190B0
:10638000044B93F809311A46019B1A7000BF02B002
:10639000704700BF3425402082B00190074BD3F8EE
:1063A000EC30012B03D1019B01221A7002E0019B0A
:1063B00000221A7000BF02B0704700BF3425402091
:1063C00082B00190034BD3F8E420019B1A6000BF18
:1063D00002B070473425402082B00190074BD3F8BB
:1063E000F030012B03D1019B01221A7002E0019BC6
:1063F00000221A7000BF02B0704700BF3425402051
:1064000082B00190034BD3F8E820019B1A6000BFD3
:1064100002B070473425402000B59BB002238DF8B0
:1064200064304E4BD3ED037AFCEEE77ACDED017A82
:106430009DF80430DBB28DF8653019AB1946484839
:1064400047F000FC0D238DF85C30444BDB6818935B
:1064500017AB1946434846F042FB0B2315933F4BBD
:106460001B8A07EE903AF8EE677ACDED167A15ABF7
:1064700019463D4854F073F84F238DF84C30374B94
:106480001B8A07EE903AF8EE677ACDED147A13ABDB
:106490001946364832F0CFFA304BD3ED037AF5EE99
:1064A000407AF1EE10FA08D106238DF8103004ABD3
:1064B00019462C4846F013FB07E007238DF80C30F3
:1064C00003AB1946274846F00AFB09231193234BD7
:1064D0001B8A07EE903AF8EE677ACDED127A11AB8F
:1064E0001946234841F0C6FC04238DF830301B4B7D
:1064F0001B8A184654F060FF02460B46CDE90E2376
:106500000CAB19461B4842F04DFB02230A93134B78
:106510001B8AADF82C300AAB194617484BF040F8EF
:10652000152307930D4B1B6808930C4B93F82030F1
:106530008DF8243007AB1946104847F05CFE142351
:106540000593064B1B68069305AB19460C4840F0B3
:1065500009FC00BF1BB05DF804FB00BF040B40202A
:10656000D8394020F8384020E43940208C044020BD
:10657000603A4020002A4020F8364020343B40203A
:10658000503F402000B583B00190074BD3E9002372
:106590001046194655F082FA0246019B1A6000BF68
:1065A00003B05DF804FB00BF380E402082B00190BC
:1065B000034B1A68019B1A6000BF02B0704700BF0E
:1065C000040B402082B00190064BD3ED2C7AFCEEF8
:1065D000E77A17EE903A9AB2019B1A8000BF02B098
:1065E000704700BF007F402008B502482DF03BFFF8
:1065F00000BF08BD8421402082B00190064BDB6BB8
:10660000012B0CBF01230023DBB21A46019B1A7039
:1066100000BF02B0704700BF2030402082B0019020
:10662000084BD3ED057AF5EE407AF1EE10FA14BF7F
:1066300001230023DBB21A46019B1A7000BF02B08F
:10664000704700BF0040402082B00190064B93F895
:10665000243007EE903AF8EE677A019BC3ED007A9A
:1066600000BF02B0704700BF0040402082B00190E0
:10667000034B1A79019B1A7000BF02B0704700BF2C
:106680008421402000B583B003468DF807309DF883
:1066900007301946034851F075F900BF03B05DF8A3
:1066A00004FB00BFB81F402082B00190044B93F858
:1066B0004030DAB2019B1A7000BF02B0704700BFD1
:1066C0002030402082B00190064B9B6D012B0CBF07
:1066D00001230023DBB21A46019B1A7000BF02B0EF
:1066E000704700BFF000402082B00190064BD3ED10
:1066F000187AFCEEE77A17EE903A9AB2019B1A806C
:1067000000BF02B0704700BF007F402000B583B0DB
:10671000084B012283F8382037238DF800300123FD
:1067200001936B461946034830F02DF900BF03B0C2
:106730005DF804FBF000402008B5094B93F83830B1
:10674000012B0AD1064B002283F83820054B382252
:106750001A700449024830F016F900BF08BD00BFA6
:10676000F0004020B401402000B585B001900B4BF3
:1067700093F88E3098B2094B93F88F3099B2074B4B
:10678000B3F88C300DF10F0250F04CFC9DF80F2047
:10679000019B1A7000BF05B05DF804FB3C7C4020F3
:1067A00000B585B00190204B93F8963098B21E4BFF
:1067B00093F8973099B21C4BB3F894301B4A50F0C1
:1067C00031FC1A4B1B788DF80F30184B5B788DF825
:1067D0000E30164B9B788DF80D30144BDB788DF80E
:1067E0000C309DF80C301A069DF80D301B041A432E
:1067F0009DF80E301B021A439DF80F30134307EE2D
:10680000903AF8EE677A9FED0A7A67EE877AFCEEA7
:10681000E77ACDED007A9DF80030DAB2019B1A706C
:1068200000BF05B05DF804FB3C7C4020500E4020CA
:106830000000C84200B583B003468DF807300B4B0B
:1068400093F88E3098B2094B93F88F3099B2074B7A
:10685000B3F88C300DF1070250F0C4FA01200BF0B0
:10686000AFFF00BF03B05DF804FB00BF3C7C4020DD
:1068700000B583B00190019BDAB2134B1A70019BF3
:106880001B0ADAB2104B5A70019B1B0CDAB20E4B8A
:106890009A70019B1B0EDAB20B4BDA700B4B93F81C
:1068A000963098B2094B93F8973099B2074BB3F8EA
:1068B0009430054A50F096FA0A200BF081FF00BF91
:1068C00003B05DF804FB00BF540E40203C7C402028
:1068D00082B001900E4BD3ED397AF5EEC07AF1EE2D
:1068E00010FA0DDB0A4BD3ED397A9FED0A7AF4EEFC
:1068F000C77AF1EE10FA03D8019B01221A7003E067
:10690000019B00221A7000BF00BF02B0704700BF99
:106910003425402000007A4382B001900E4BD3ED25
:106920003A7AF5EEC07AF1EE10FA0DDB0A4BD3EDB0
:106930003A7A9FED0A7AF4EEC77AF1EE10FA03D8AC
:10694000019B01221A7003E0019B00221A7000BF14
:1069500000BF02B0704700BF3425402000007A43DA
:1069600000B585B001900023039300230293134BDD
:10697000DB8B124A92F82010104A92F82120184618
:106980000CF01EF803900D4B5B8B0C4A117F0B4AE9
:10699000527F18460CF014F80290029A039B9A4218
:1069A00003D2019B00221A6004E0029A039BD21AD0
:1069B000019B1A6000BF05B05DF804FB6C404020ED
:1069C00000B583B00D480EF0E9FE0C480EF01CFF38
:1069D0000B4B1B88ADF80430094B5B88DBB28DF89C
:1069E0000630074B9B88DBB28DF8073001990348CE
:1069F0002DF0E0FF00BF03B05DF804FB6C404020C9
:106A00008832402000B585B00190019B1B68114A77
:106A1000A2FB0323DB08DBB28DF80C30019B1B6863
:106A20000C4AA2FB0323DB081B0ADBB28DF80D30F6
:106A3000094B93F89E3098B2074B93F89F3099B268
:106A4000054BB3F89C3003AA50F0CCF900BF05B059
:106A50005DF804FBCDCCCCCC3C7C402008B5024892
:106A6000FFF7D0FF00BF08BD6C40402008B50221F1
:106A700002484FF0C9FF00BF08BD00BFB021402051
:106A800008B5022102484FF0D8FF00BF08BD00BF83
:106A9000B021402008B5032102484FF0B5FF00BFE8
:106AA00008BD00BFB021402008B5032102484FF0C7
:106AB000C4FF00BF08BD00BFB021402008B50421BD
:106AC00002484FF0A1FF00BF08BD00BFB021402029
:106AD00008B5042102484FF0B0FF00BF08BD00BF59
:106AE000B021402008B5052102484FF08DFF00BFBE
:106AF00008BD00BFB021402008B5052102484FF075
:106B00009CFF00BF08BD00BFB021402008B50DF0BC
:106B10000FFC00BF08BD00B583B008230093064BEF
:106B20001B6A01936B461946044825F04CFE00BFD2
:106B300003B05DF804FB00BF9C364020F0364020D7
:106B400000B583B011230093012301936B461946CE
:106B5000034853F004FD00BF03B05DF804FB00BF21
:106B6000E439402000B583B0112300930023019342
:106B70006B461946034853F0F2FC00BF03B05DF8C2
:106B800004FB00BFE439402000B583B00B4B00226A
:106B90001A630A4B0022DA62084B01229A63074B00
:106BA00000225A631E238DF8043001AB19460448B5
:106BB00029F0C7FC00BF03B05DF804FBB44C4020D3
:106BC0007847402000B583B003468DF807309DF824
:106BD00007301A46022103484FF03FFF00BF03B0C1
:106BE0005DF804FBB021402000B583B003468DF86A
:106BF00007309DF807301A46032103484FF02DFF58
:106C000000BF03B05DF804FBB021402000B583B0A5
:106C100003468DF807309DF807301A4604210348D3
:106C20004FF01BFF00BF03B05DF804FBB021402014
:106C300000B583B003468DF807309DF807301A463B
:106C4000052103484FF009FF00BF03B05DF804FBC6
:106C5000B021402000B585B003468DF807309DF87F
:106C600007308DF80D3035238DF80C3003AB194605
:106C700003482FF088FE00BF05B05DF804FB00BF9D
:106C8000F000402000B585B00292019303468DF8D4
:106C90000F300B468DF80E309DF80E109DF80F004A
:106CA000019B029A2EF05CF90346184605B05DF888
:106CB00004FB00B585B00292019303468DF80F30B6
:106CC0000B468DF80E309DF80E109DF80F00019BBD
:106CD000029A2EF093F90346184605B05DF804FBBE
:106CE00000B583B0019001982EF0BAF9034618461A
:106CF00003B05DF804FB00B583B0019001982EF05D
:106D0000FFF90346184603B05DF804FB00B583B0F5
:106D1000019001982EF070FA0346184603B05DF812
:106D200004FB00B583B0019001982EF01FFA0346D2
:106D3000184603B05DF804FB00B583B001900198DC
:106D40002EF088FA0346184603B05DF804FB00B540
:106D500083B0019001982EF0AEFA0346184603B0B6
:106D60005DF804FB00B583B0019001982EF0EDFAB8
:106D70000346184603B05DF804FB00B583B00190EC
:106D800001982EF014FB0346184603B05DF804FB8F
:106D900008B5042102488DF0F7FC0346184608BDEB
:106DA0000617294008B5024836F038FC00BF08BD78
:106DB0008C0440200000000000BF704700B585B083
:106DC0000190019B002B08D010230293019B039399
:106DD00002AB194603483FF0C5FF00BF05B05DF8A0
:106DE00004FB00BF503F402000B589B001902A4B02
:106DF0001B6B022B1ED0022B1ED8002B02D0012BA6
:106E000009D019E0019B03F00403002B16D0224B9C
:106E100001221A6312E0019B03F00403002B0FD13F
:106E20001D4B02221A6341F288300BF0C9FC17F0A7
:106E300051FA05E000BF04E000BF02E000BF00E03F
:106E400000BF0C238DF81830019B9B0803F0010351
:106E5000079306AB1946114845F041FE0B238DF808
:106E60001030019B5B0803F00103059304AB194646
:106E70000A4845F034FE0A238DF80830019B03F0E0
:106E80000103039302AB1946044845F028FE00BFF6
:106E900009B05DF804FB00BF20304020F8384020E6
:106EA00000B587B003468DF807300B468DF80630E5
:106EB00013468DF805303A238DF80C309DF80730D5
:106EC00004939DF806308DF814309DF805308DF848
:106ED000153003AB1946034831F0ADFD00BF07B0D4
:106EE0005DF804FB8C04402000B585B003468DF8A6
:106EF0000730424A9DF8073082F8E0309DF80730AD
:106F000003F00103002B14BF01230023DAB23B4B33
:106F100083F8E1209DF807305B08DBB203F0010342
:106F2000002B14BF01230023DAB2344B83F8E22094
:106F30009DF807305B09DBB203F00103002B14BF9F
:106F400001230023DAB22D4B83F8E3209DF80730AC
:106F50009B09DBB203F00103002B14BF01230023C4
:106F6000DAB2264B83F8E4209DF80730DB09DBB268
:106F700003F00103002B14BF01230023DAB21F4BDF
:106F800083F8E5201D4B93F8E230DBB2002B17D1DC
:106F90001A4B93F8E130DBB2002B11D1174B93F869
:106FA000E330DBB2002B0BD1144B93F8E430DBB2AF
:106FB000002B05D1114B93F8E530DBB2002B05D047
:106FC0000E4B1E225A630D4BAC229A63122302937E
:106FD0009DF807305B08DBB203F00103002B14BF00
:106FE00001230023DBB28DF80C3002AB19460448B4
:106FF00040F040FF00BF05B05DF804FB20304020AA
:10700000603A402000B583B03B238DF8043001ABDB
:107010001946034831F00FFD00BF03B05DF804FBD3
:107020008C04402000B589B003468DF807300B462C
:107030008DF8063013468DF805300A238DF8183088
:107040009DF80730079306AB19460E4845F047FDFB
:107050000B238DF810309DF80630059304AB1946CC
:10706000084845F03CFD0C238DF808309DF80530AC
:10707000039302AB1946034845F031FD00BF09B048
:107080005DF804FBF838402000BF704700B583B0BE
:1070900017238DF8043001AB1946034841F082FDF7
:1070A00000BF03B05DF804FB002A402000B583B0A8
:1070B00018238DF8043001AB1946034841F072FDE6
:1070C00000BF03B05DF804FB002A402000B583B088
:1070D000114B1B88002B1BD00F4B00221A800E4B2C
:1070E0001B88DBB28DF804300B4B1B881B0A9BB24C
:1070F000DBB28DF80530094B93F8263098B2074B78
:1071000093F8273099B2054B9B8C01AA4FF06AFE89
:1071100000BF03B05DF804FBE40E40203C7C40203F
:1071200000B583B01E238DF8043001AB1946034827
:1071300041F038FD00BF03B05DF804FB002A402099
:1071400000B583B01F238DF8043001AB1946034806
:1071500041F028FD00BF03B05DF804FB002A402089
:1071600082B001900B468DF803300A4A019BD3632D
:10717000084BDB6B002B05D1064A9DF8033082F8E3
:10718000403003E0034B002283F8402000BF02B0F0
:10719000704700BF2030402000B583B00190019BB4
:1071A000012B0BD10D4BD3F89C30002B11D124F0C7
:1071B0009FFA0A4B0122C3F89C200AE0074BD3F840
:1071C0009C30012B05D124F088FA044B0022C3F82F
:1071D0009C2000BF03B05DF804FB00BF20304020BE
:1071E00000B585B00190084A019B13660323029302
:1071F000054B1B6E039302AB1946044840F03AFE60
:1072000000BF05B05DF804FB20304020603A40200C
:1072100000B585B00190084A019B5366052302938F
:10722000054B5B6E039302AB1946044840F022FE07
:1072300000BF05B05DF804FB20304020603A4020DC
:1072400000B585B003468DF807309DF807300393ED
:107250002D238DF8083002AB194603482FF093FB1D
:1072600000BF05B05DF804FBF000402000B585B01C
:107270000190084A019B936606230293054B9B6E7F
:10728000039302AB1946044840F0F4FD00BF05B07B
:107290005DF804FB20304020603A402000B585B006
:1072A0000190084A019BD36607230293054BDB6ECE
:1072B000039302AB1946044840F0DCFD00BF05B063
:1072C0005DF804FB20304020603A402000B585B0D6
:1072D0000190084A019B136713230293019B0393B8
:1072E00002AB1946044840F0C5FD00BF05B05DF88B
:1072F00004FB00BF20304020603A402000B585B03C
:107300000190084A019B536714230293019B039346
:1073100002AB1946044840F0ADFD00BF05B05DF872
:1073200004FB00BF20304020603A402000B585B00B
:107330000190084A019B936715230293019B0393D5
:1073400002AB1946044840F095FD00BF05B05DF85A
:1073500004FB00BF20304020603A402000B585B0DB
:1073600001900A4B93F8BF3083F00103DBB2002B8E
:1073700008D0132302930123039302AB1946044858
:107380003FF0F0FC00BF05B05DF804FBF0004020CA
:10739000503F402000B585B00190084A019B5364DE
:1073A00003230293054B5B6C039302AB194604481D
:1073B00053F0D5F800BF05B05DF804FB2030402045
:1073C000E439402000B585B00190084A019B9364E0
:1073D00004230293054B9B6C039302AB19460448AC
:1073E00053F0BDF800BF05B05DF804FB203040202D
:1073F000E439402000B585B00190084A019BD36470
:1074000006230293054BDB6C039302AB1946044839
:1074100053F0A5F800BF05B05DF804FB2030402014
:10742000E439402000B585B00190084A019B1365FE
:107430000A230293054B1B6D039302AB19460448C4
:1074400053F08DF800BF05B05DF804FB20304020FC
:10745000E439402000B585B00190084A019B53658E
:1074600007230293054B5B6D039302AB1946044857
:1074700053F075F800BF05B05DF804FB20304020E4
:10748000E439402000B585B00190084A019B93651E
:1074900005230293054B9B6D039302AB19460448E9
:1074A00053F05DF800BF05B05DF804FB20304020CC
:1074B000E439402000B585B00190084A019BD365AE
:1074C00008230293054BDB6D039302AB1946044876
:1074D00053F045F800BF05B05DF804FB20304020B4
:1074E000E439402000B58BB00390029101920093E3
:1074F000154A039BC2F88430134A029BC2F88830B5
:10750000114A019BC2F88C300F4A009BC2F89030A0
:10751000122305930C4BD3F8843006930A4BD3F80F
:1075200088300793084BD3F88C300893064BD3F878
:107530009030099305AB194604483FF013FC00BF97
:107540000BB05DF804FB00BF20304020503F4020CE
:1075500000B585B00190084A019BC2F8943005231C
:107560000293019B039302AB194604482CF0A3FB42
:1075700000BF05B05DF804FB2030402048464020A5
:1075800000B585B0019012230293019B039302ABD7
:107590001946034852F0E3FF00BF05B05DF804FB55
:1075A000E439402082B00190019B002B04D1074BAD
:1075B0000122C3F8982006E0019B012B03D1034B65
:1075C0000222C3F8982000BF02B07047203040204C
:1075D00000B587B00190002305931E4BD3F8FC340F
:1075E000022B02D10123059301E0002305931A4ADF
:1075F000019BC2F8A030184BD3F8A030012B04D166
:10760000144B0222C3F8FC2403E0124B0122C3F8FE
:10761000FC24114BD3F8A030059A9A420DD00F4BA1
:1076200093F8DE3098B20D4B93F8DF3099B20B4BE4
:10763000B3F8DC300A4A4FF0D5FB13230393019BC8
:10764000049303AB1946074852F089FF00BF07B007
:107650005DF804FB78474020203040203C7C4020EF
:10766000C0304020E439402030B59BB00590059BE8
:107670001A78B14B1A70059B5A78AF4B5A70059B1C
:107680009A78AD4B9A70059BDA78AB4BDA70059B14
:107690001A79A94B1A71059B5A79A74B5A71059B08
:1076A0009A79A54B9A71059BDA79A34BDA71059B00
:1076B00008331B78184653F07FFE04460D46059BA1
:1076C00009331B78184653F077FE4FF000029B4BAE
:1076D00054F016F802460B462046294653F030FD7A
:1076E00002460B4614461D46059B0A331B78184676
:1076F00053F062FE8CA3D3E9002354F001F8024654
:107700000B462046294653F01BFD02460B46144605
:107710001D46059B0B331B78184653F04DFE84A382
:10772000D3E9002353F0ECFF02460B4620462946DE
:1077300053F006FD02460B467F49C1E90223059B33
:107740000C331B78184653F037FE04460D46059B54
:107750000D331B78184653F02FFE4FF00002774B85
:1077600053F0CEFF02460B462046294653F0E8FC74
:1077700002460B4614461D46059B0E331B781846E1
:1077800053F01AFE68A3D3E9002353F0B9FF024671
:107790000B462046294653F0D3FC02460B461446BE
:1077A0001D46059B0F331B78184653F005FE60A35A
:1077B000D3E9002353F0A4FF02460B462046294696
:1077C00053F0BEFC02460B465B49C1E90423059B0E
:1077D00010331B781A46584B9A62059B11331B785D
:1077E0001A46554B9A61059B12331B7807EE903A67
:1077F000B8EE677AF2EE046AC7EE267A4E4BC3ED16
:10780000077A059B13331B7807EE903AB8EE677A38
:10781000F2EE046AC7EE267A474BC3ED087A059B61
:1078200014331B7807EE903AB8EE677AF2EE046AEA
:10783000C7EE267A404BC3ED097A05238DF8303028
:107840003D4B1B788DF838303B4B5B788DF83930E9
:10785000394B9B788DF83A30374BDB788DF83B30DD
:10786000354B1B798DF83C30334B5B798DF83D30CF
:10787000314B9B798DF83E302F4BDB798DF83F30C3
:107880002D4BD3E90223CDE910232B4BD3E904235D
:10789000CDE91223284B9B6A1893274B9B691493BD
:1078A000254BDB691593244B1B6A1693224B5B6AAD
:1078B00017930CAB1946224845F011F9059B02338A
:1078C0001B7803F2CF731F4A12889342C0F2948050
:1078D000059B1B789BB2ADF82830059B01331B78C4
:1078E0009BB2ADF82630059B02331B789BB203F5A3
:1078F000FA639BB2ADF82430059B03331B789BB22F
:10790000ADF82A30059B04331B789BB2ADF82C30C0
:10791000059B5B798DF82E30059B15331B7803F0A2
:107920000103002B2AD10FE0000000000088C340B3
:107930000000000080842E41A839402000005940FA
:10794000F838402088324020059B06331B78059A82
:107950000732127809A98D1D09A90C1D09A9023148
:1079600009A80392029309AB0A33019309AB0833C8
:1079700000932B4622460BF07DF81CE0059B063356
:107980001B785B42DBB2059A073212785242D2B2C0
:1079900009A98D1D09A90C1D09A9023109A8039285
:1079A000029309AB0A33019309AB083300932B46CA
:1079B00022460BF05FF809AB184624F0BDFD1048D5
:1079C00024F0C5FD0E4B1B88ADF820300C4B5B88B6
:1079D000DBB28DF822300A4B9B88DBB28DF8233066
:1079E000089908482CF0E6FF82238DF81C3007AB7D
:1079F0001946054828F0A5FD00BF1BB030BD00BFEB
:107A0000883240206C4040207847402000B589B043
:107A100003468DF80730214B1B68002B03D1012151
:107A20001E4851F017FC1E4BD3F8FC34022B16D124
:107A30001C4B01221A7031238DF81C3007AB1946FC
:107A400019482EF0A0FF32238DF8183000238DF84E
:107A5000193006AB194614482EF095FF19E0302373
:107A60008DF8143005AB19460F482EF08CFF00231B
:107A70008DF8113033238DF8103004AB19460A48C5
:107A80002EF081FF0C23039303AB1946034851F0FA
:107A900011FC00BF09B05DF804FB00BF9C3640201C
:107AA00078474020EC004020F000402082B00346A0
:107AB0008DF8073000BF02B0704700B587B00346AD
:107AC0008DF80730122304939DF807308DF8143099
:107AD00004AB19460A4846F08EFB0E23039303AB12
:107AE0001946074846F087FB02238DF8083002ABA1
:107AF0001946044844F0F3FF00BF07B05DF804FBEB
:107B0000343B4020F838402000B583B004238DF882
:107B1000043001AB1946034844F0E1FF00BF03B055
:107B20005DF804FBF838402000B587B003468DF8B7
:107B30000730122304939DF807308DF8143004ABFE
:107B400019460B4846F057FB0E23039303AB194627
:107B5000074846F050FB02238DF8083002AB194667
:107B6000044844F0BCFF00BF07B05DF804FB00BF51
:107B7000343B4020F838402000B585B003468DF8EE
:107B800007300F23039303AB1946034846F033FB3A
:107B900000BF05B05DF804FB343B402000B587B062
:107BA00003468DF80730122304939DF807308DF8B3
:107BB000143004AB1946074846F01DFB102303930D
:107BC00003AB1946034846F016FB00BF07B05DF84B
:107BD00004FB00BF343B402000B587B003468DF85E
:107BE0000730174B002283F8AE2034238DF8143071
:107BF00005AB194612482EF0C6FE114B93F8AE3075
:107C000083F00103DBB2002B0AD0122302939DF80C
:107C100007308DF80C3002AB19460A4846F0EBFAF3
:107C2000084B012283F8CE201023049304AB19469D
:107C3000044846F0E0FA00BF07B05DF804FB00BF5F
:107C4000F0004020343B402000B587B003468DF85B
:107C50000730122304939DF807308DF8143004ABDD
:107C60001946074846F0C7FA1423039303AB194695
:107C7000034846F0C0FA00BF07B05DF804FB00BF40
:107C8000343B402000B585B003468DF807302623ED
:107C90008DF80C309DF807308DF80D3003AB194688
:107CA00003482EF070FE00BF05B05DF804FB00BF76
:107CB000F000402082B00190019B01331B7807EE59
:107CC000903AF8EEE77A9FED127A67EE877A114BD9
:107CD000C3ED027A019B02331B78283BDBB25AB218
:107CE0000C4B1A71019B03331B781B02019A04325F
:107CF0001278134307EE903AF8EEE77A9FED047A94
:107D000067EE877A034BC3ED007A00BF02B070477D
:107D1000CDCCCC3D2030402082B00190019B083377
:107D20001B7807EE903AF8EEE77A9FED127A67EE4D
:107D3000877A114BC3ED077A019B09331B78283BE7
:107D4000DBB25AB20C4B1A76019B0A331B781B022A
:107D5000019A0B321278134307EE903AF8EEE77A65
:107D60009FED047A67EE877A034BC3ED057A00BF77
:107D700002B07047CDCCCC3D2030402082B00346CD
:107D80008DF80730034A9DF8073082F8D03000BFE5
:107D900002B070472030402082B003468DF8073093
:107DA000034A9DF8073082F8D13000BF02B0704717
:107DB0002030402082B003468DF80730034A9DF8FA
:107DC000073082F8D23000BF02B070472030402028
:107DD00082B003468DF80730034A9DF8073082F8D9
:107DE000D33000BF02B070472030402082B003463D
:107DF0008DF80730034A9DF8073082F8D43000BF71
